:100000000C94E5000C9402010C9402010C94020182
:100010000C9402010C943F010C9402010C94020117
:100020000C9402010C9402010C9402010C94020144
:100030000C9402010C9402010C9402010C94020134
:100040000C94590D0C9402010C9402010C940201C1
:100050000C948F0C0C944D0C0C9402010C94020126
:100060000C9402010C9402010C9402010C94020104
:100070000C9402010C9402010C94020150726573FD
:1000800073206120627574746F6E20746F207374B6
:1000900061727420616761696E0047414D45204F70
:1000A0005645520043535345323031302F373230AA
:1000B000312070726F6A656374206279204D696EB9
:1000C0006820416E682042756920343530343138FB
:1000D00039390041737465726F6964730048014572
:1000E0000141013D013901350131012D0129012570
:1000F00001B701B301AF01AB01A701A3019F019BB0
:10010000019801940190018C01870183017F017B9B
:1001100001760172016E016901650160015B0156A2
:100120000151014C016492927D6C92926D809EA06F
:10013000C17C92924DE4A2A29D182848FF4492925D
:100140006D468A926342FE037C92A27D868A92A2C9
:10015000C3E0100E10E1C6281028C7FC021C02FDE7
:10016000F8040204F9FC0202FD8080FE80816492A2
:10017000924DFE9098677C828A7C03FE9090617C11
:1001800082827DFE2010FFFE403040FFFE0202030F
:10019000FE1028C7040202FD82FE83FE1010FF7CC1
:1001A00082925DFE909081FE929283FE82827D7C9F
:1001B000828245FE92926D7E90907F1B5B324A0058
:1001C0001B5B25643B256448000011241FBECFEF54
:1001D000D8E0DEBFCDBF11E0A0E0B1E0EEE6F5E291
:1001E00002C005900D92A03AB107D9F723E0A0EA2A
:1001F000B1E001C01D92A536B207E1F70E94910A55
:100200000C94B5120C940000E8E6F0E08081826066
:100210008083D99AECE6F0E080818F608083109231
:10022000A00108958091A00118163CF58091A101CC
:100230006FB7F8949091A0019230B4F021E030E0D3
:1002400091E0F901EF55FE4F4081F901E056FE4F74
:1002500040839F5F292F30E04091A001042E000CC5
:10026000550B241735076CF39091A0019150909392
:10027000A00166231CF4789408958FEF08951F92CF
:100280000F920FB60F9211242F933F934F935F93CA
:100290006F937F938F939F93EF93FF9343B14F702F
:1002A00080E090E0642F70E02091A001243004F5FC
:1002B0009B01082E02C0359527950A94E2F720FF8E
:1002C00017C02091A50130E0082E02C03595279572
:1002D0000A94E2F720FD0CC0E091A00121E02E0F6E
:1002E0002093A0010E2E000CFF0BEF55FE4F8083D4
:1002F000019684309105C1F64093A501FF91EF91DD
:100300009F918F917F916F915F914F913F912F912D
:100310000F900FBE0F901F9018952F923F924F9203
:100320005F926F927F928F929F92AF92BF92CF9285
:10033000DF92EF92FF920F931F93CF93DF93CDB78E
:10034000DEB764970FB6F894DEBF0FBECDBF8091C5
:100350000401909105019E878D87E1E1F2E0FA8B1F
:10036000E98B81EC91E0988B8F870F2EFDEF4F2E5C
:10037000F1E05F2EF02D66246394712C8D859E85AF
:100380000E94461290910601891362C0ED85FE8598
:10039000FC8BEB8B7F01F2E0EF0EF11C0D851E85CF
:1003A000095F1F4FCD84DE8426E0C20ED11C1201EE
:1003B000812C912C5401C7010E944612F1018193B6
:1003C0001F01880E911CA11CB11CFFEFEF1AFF0A40
:1003D000EC14FD0481F7CE0101966C01EB88FC88DA
:1003E00093E1E90EF11C2F843888C8010E9446125F
:1003F000F60181936F01F10181931F010F5F1F4F80
:100400000E151F0591F7E989FA8980829182A282EF
:10041000B382B3016D5E7F4F84E190E00E94100DC6
:1004200081E090E08C0F9D1F9F938F93BF92AF92BE
:100430009F928F927F926F92EAE2F1E0FF93EF93A7
:100440000E94760F0FB6F894DEBF0FBECDBF14C06A
:10045000E989FA891082118212821382F2011082D4
:100460001182128213828F8598890C96EF85F88904
:100470001192E817F907E1F78D859E8544969E87CE
:100480008D879FEF691A790AE989FA893496FA8B80
:10049000E98B8F8598890C96988B8F8794E0490E0D
:1004A000511CE6E06E16710409F068CF64960FB631
:1004B000F894DEBF0FBECDBFDF91CF911F910F919A
:1004C000FF90EF90DF90CF90BF90AF909F908F9074
:1004D0007F906F905F904F903F902F9008952F9254
:1004E0003F924F925F926F927F928F929F92AF92C4
:1004F000BF92CF92DF92EF92FF920F931F93CF9311
:10050000DF9300D000D0CDB7DEB7C0900401D0900B
:1005100005010F2EF1E1AF2EF2E0BF2EF02D0F2ED0
:10052000F1EC6F2EF1E07F2EF02D0F2EFDEF8F2ED0
:10053000F1E09F2EF02D0F2EF5E24F2EF2E05F2E10
:10054000F02DF50181919191A191B1915F01892BDC
:100550008A2B8B2BA9F1DA82C9821601F2E02F0EC9
:10056000311CC60107969C838B8360910601C601EE
:100570000E944E12760196E0E90EF11C8401F8010A
:1005800061918F01C1010E944E12FFEF2F1A3F0AA5
:100590002E143F04A1F7E980FA8083E1E80EF11CF4
:1005A0008301F80161918F018B819C810E944E1221
:1005B0008B819C8101969C838B838E159F0589F787
:1005C00094E1C90ED11CECE06E0E711CF4E08F0EAC
:1005D000911CA414B50409F0B4CF0F900F900F90A4
:1005E0000F90DF91CF911F910F91FF90EF90DF90CF
:1005F000CF90BF90AF909F908F907F906F905F90C3
:100600004F903F902F9008957F928F929F92AF923C
:10061000BF92CF92DF92EF92FF920F931F93CF93EF
:10062000DF931092C10165E070E082E390E00E94E8
:10063000100D8BE491E09F938F930E94760F67E0FB
:1006400070E082E390E00E94100D8AE591E09F93B4
:100650008F930E94760F0F900F900F900F9010E0E5
:10066000E12CF12C0F2EFFE58F2EF3E09F2EF02DC5
:100670000F2EF5EBAF2EF1E0BF2EF02D0F2EF8E48C
:10068000CF2EF1E0DF2EF02D6894772475F8F40179
:10069000808191810E94380FEC0199270E94300FD0
:1006A000892B11F4C032C1F4F701EB54FE4FC08323
:1006B00068E070E082E390E00E94100DBF92AF927C
:1006C000DF92CF920E94760FEFEFEE1AFE0A0F90A4
:1006D0000F900F900F901FC0CF3711F0C830C9F4A2
:1006E000F1E0EF1AF108F701EB54FE4F708212505F
:1006F00068E070E082E390E00E94100DBF92AF923C
:10070000DF92CF920E94760F0F900F900F900F9074
:1007100002C0CA3021F01F5F1C3008F4B8CFDF914F
:10072000CF911F910F91FF90EF90DF90CF90BF90EE
:10073000AF909F908F907F9008952F923F924F920D
:100740005F926F927F928F929F92AF92BF92CF9261
:10075000DF92EF92FF920F931F93CF93DF9300D01E
:1007600000D000D0CDB7DEB70E94BA0AAB01BC0101
:10077000E5E2F2E04083852E5183C62E6283472E48
:1007800055246624772443828091110290911202AD
:10079000A0911302B091140284179507A607B7071A
:1007A00098F0E5E1F2E081E090E01C010191119107
:1007B00021913191041715072607370708F06EC0FD
:1007C000082F843020F03EC0212C312C00E081E243
:1007D00092E09A838983EDEFF1E025EE31E014E0B9
:1007E0003C822B82FE83ED83312EE981FA81B29126
:1007F000A29192918291FA83E98384839583A6835F
:10080000B783F9013C96C9014896D901202E1D9164
:100810001193E817F907D9F7022D8D819E81FC010C
:100820008485808B8585818B8685828B8785838B6C
:100830003A943497FE83ED832C5031092314A8F2A7
:100840002B803C80C101880F991F880F991FFC01E4
:10085000EF5EFD4F4083518362837383FC01E3505D
:10086000FE4F40838182C28243820E940403A5EB33
:10087000B1E0F101EE0FFF1FE20DF31DEE0FFF1FC0
:10088000EE0FFF1FEF53FE4F21EC31E08D9181936E
:100890002A173B07D9F70E946F0205C001968530E1
:1008A000910509F082CF26960FB6F894DEBF0FBEF1
:1008B000CDBFDF91CF911F910F91FF90EF90DF900F
:1008C000CF90BF90AF909F908F907F906F905F90F0
:1008D0004F903F902F90089520E1829FC0011124F6
:1008E0006F70862B40912902042E000C550B1416B4
:1008F0001506C4F490912F02891749F090E00AC0C0
:10090000F901E15DFD4F2081821304C001C090E038
:10091000892F08959F5F292F30E02417350784F32E
:100920008FEF08958FEF08951F93CF93DF93182FC4
:10093000909143028FEF890F482F082E000C550B22
:10094000292F092E000C330B2F5F3F4F241735073B
:10095000E4F0D8E0D91BC82F883028F4412F6D2F40
:1009600080E00E94F50781E08C0F90914302D15006
:10097000482F082E000C550B292F092E000C330B85
:100980002F5F3F4F2417350734F767E0691B412F6E
:1009900081E00E94F507DF91CF911F91089590E0CB
:1009A00020912902022E000C330B821793076CF45E
:1009B000462FFC01E15DFD4F8081982F92959F703D
:1009C00067E0691B8F700E94F507089590E0209101
:1009D0002E02022E000C330B821793076CF4462F65
:1009E000FC01E65DFD4F8081982F92959F7067E036
:1009F000691B8F700E94F5070895CF930E943808F5
:100A00008FED0E94940480912902181684F4C0E0AE
:100A100060EF8C2F0E94CF04CF5F2C2F30E08091AD
:100A20002902082E000C990B281739078CF38091A6
:100A30002E02181684F4C0E06FE08C2F0E94E604AA
:100A4000CF5F2C2F30E080912E02082E000C990BE6
:100A5000281739078CF3CF910895CF93882324F179
:100A600090912E02891704F5C82F60E00E94E604D9
:100A700081E08C0F282F30E060912E02462F062E49
:100A8000000C550B2417350764F4F901E65DFD4FA2
:100A90009081319790838F5F282F30E0241735079E
:100AA000A4F3615060932E02CF9108954F925F920C
:100AB0006F927F92AF92BF92CF92DF92EF92FF92AE
:100AC0000F931F93CF93DF9383E0809343021092A1
:100AD0002E02109229020FE212E00F2EF3E4AF2E45
:100AE000F2E0BF2EF02D0F2EFDE04F2E512C612C89
:100AF000712CF02D0E94D60E6B017C0127E0C222E2
:100B0000DD24EE2420E8F222FF2084F481E0C81ADC
:100B1000D108E108F108E8EFCE2ADD24DA94ED2CC3
:100B2000FE2CFFEFCF1ADF0AEF0AFF0A0E94D60E53
:100B3000A30192010E946C0EC3E0C60F6C2F8C2D96
:100B40000E946C048F3FB1F620E1C29EB0011124D7
:100B5000CF70C62BF801C1938F01809129028F5F5E
:100B600080932902EA15FB0529F60E94FD04DF9116
:100B7000CF911F910F91FF90EF90DF90CF90BF909A
:100B8000AF907F906F905F904F900895CF93C82F54
:100B900080E00E949404C11108C08091430218169D
:100BA0006CF481508093430209C0C13039F48091C4
:100BB000430287301CF48F5F809343028FED0E94C5
:100BC000940481E0CF9108950E94AA0791E08111D9
:100BD00090E0892F0895CF93DF93C0E0D0E06FE0DD
:100BE0008C2F0E946C048F3F09F4DF5FCF5FC83009
:100BF000B1F72FC00E94D60EDC01CB018770992778
:100C0000AA27B078BB2354F40197A109B109886FD2
:100C10009F6FAF6FBF6F0196A11DB11DC82F6FE011
:100C20000E946C048F3FE1F480912902E1E0E80F1B
:100C3000E0932902D1500E2E000CFF0BE25DFD4F18
:100C400090E1C99F900111242F60208360EF0E94E2
:100C5000CF04DD2349F080912902843159F604C084
:100C600080912902843131F6DF91CF910895CF939D
:100C700088231CF1909129028917FCF4C82F60E0A9
:100C80000E94CF048C2FCC0F990B40912902242F66
:100C9000042E000C330B215031098217930744F4C2
:100CA000F901E15DFD4F2081FC01E15DFD4F2083F5
:100CB0004150409329020E94EB05CF910895CF93B4
:100CC000C0912E02C4300CF049C06091430220E173
:100CD000629FC0011124382F32604C2F0C2E000C63
:100CE000550B14161506B4F480912A028317C1F12E
:100CF00020E00AC0FC01E65DFD4F8081381304C08E
:100D00002F3F41F080E02FC02F5F822F90E08417AB
:100D1000950784F381E08C0F80932E02EC2FF0E096
:100D2000E65DFD4F20E16202C001112482608083F4
:100D30006FE08C2F0E94E60462E0809143020E94E3
:100D40006C048F3F79F00E9437068C2F0E942D058E
:100D500081E090E00E94A50A81E005C080E003C028
:100D600080E001C081E0CF910895EF92FF921F9340
:100D7000CF93DF9310E037C0E12E012E000CFF0867
:100D8000F701E65DFD4F8081C82FCF70CF5FC03186
:100D900021F4812F0E942D0526C0D82FD295DF7017
:100DA0006C2F8D2F0E946C048F3F51F00E943706EC
:100DB000812F0E942D0581E090E00E94A50A13C0BA
:100DC00060E0812F0E94E604F701E65DFD4F20E11F
:100DD000D29FC0011124CF70C82BC0836FE0812F38
:100DE0000E94E6041F5F80912E0218172CF2DF91FB
:100DF000CF911F91FF90EF900895CF93809129029A
:100E000018160CF048C080E090E0C0E0FC01E15D05
:100E1000FD4F8081682F6F7082958F7090E02091D8
:100E20004302022E000C330B8217930711F461303A
:100E3000B9F0A9014F5F5F4F8417950719F4662336
:100E400079F022C0A901415051098417950719F47E
:100E5000662331F00DC08217930751F4611108C069
:100E60008C2F0E9437068FED0E9494040E94A207E7
:100E7000CF5F8C2F90E020912902022E000C330BC3
:100E8000821793071CF207C0A90141505109481766
:100E9000590709F7EDCFCF9108950F931F93CF9383
:100EA000DF938091290218160CF03FC080E090E09B
:100EB00010E0CAE2D2E000E0FC01E15DFD4F4081BC
:100EC0008FE0840F8F70407F482B408360912E020B
:100ED000062E000C770B16161706E4F488814817C7
:100EE00091F080E009C0F901E65DFD4F9081491362
:100EF00003C08F3F49F40EC08F5F282F30E02617C4
:100F000037078CF307C0802F0E942D0581E090E009
:100F10000E94A50A1F5F812F90E020912902022ED6
:100F2000000C330B821793073CF20E94FD060E94CF
:100F3000FD04DF91CF911F910F91089584E080937C
:100F40004402089580914402882319F081508093CF
:100F500044020895809144020895789486E4809331
:100F60007C0086E880937A008091A601811106C0FA
:100F7000ECE7F0E080818E7F808305C0ECE7F0E055
:100F8000808181608083EAE7F0E0808180648083F3
:100F9000808186FDFDCF80917800909179009093BB
:100FA0004602809345022091A601211109C0813992
:100FB00031E0930760F08835924058F082E50CC02C
:100FC00081599140873C910530F081E405C08CE463
:100FD00003C080E201C080E291E092279093A601D5
:100FE000089580E80E94E20C08951F93CF93DF9349
:100FF0008031B0F46830A0F4142FC62FD82F81E0D0
:101000000E940A0D6C2F677080E1689F9001112487
:101010008D2F8F70822B0E940A0D812F0E940A0D46
:10102000DF91CF911F9108950F931F93CF93DF937B
:10103000803190F48B01C82F83E00E940A0D8C2F21
:101040008F700E940A0DE801085F1F4F89910E946E
:101050000A0DC017D107D1F7DF91CF911F910F91E2
:10106000089584E00E940A0D82E00E940A0D08950E
:101070008FE00E940A0D08950E94F1070E9404016A
:1010800040E060E07BE480E090E00E94FA0B0E9488
:101090002A0D789408950E94210D6AE070E08AE09C
:1010A00090E00E94100D83ED90E09F938F930E943B
:1010B0008C0F6CE070E08AE090E00E94100D84EAF2
:1010C00090E09F938F930E948C0F0E9438080F909E
:1010D0000F900F900F9060EF88E691E00E94C30A96
:1010E0000DC02FE789EA93E0215080409040E1F75E
:1010F00000C000000E9412018F3F29F40E94D20A12
:101100008111EFCFE8CF08950E9456050E94210D6E
:101110000E948D010E949C0A0E949E070E9412015B
:101120000E94480C08952F923F924F925F926F92C7
:101130007F928F929F92AF92BF92CF92DF92EF9267
:10114000FF920F931F93CF93DF93CDB7DEB76097D6
:101150000FB6F894DEBF0FBECDBF0E94480D6C875E
:101160007D878E879F8781E090E0A0E0B0E0898353
:101170009A83AB83BC838C859D85AE85BF8588872C
:101180009987AA87BB874C015D0195E09F830F2E4D
:10119000FCE54F2EF1E15F2E612C712CF02DA1E0CA
:1011A000AD83188A0F2EF9E82F2EF1E03F2EF02D97
:1011B0002BC10E941201182F0E94FD061F3F01F54E
:1011C0000E94410C882309F454C1EFE5F3E08081CB
:1011D00091810E94380F8E83F889F11103C08B3101
:1011E00089F442C12889213031F48E818B3509F48C
:1011F0003EC1188A07C09889923009F40BC122C1F8
:10120000AFEFAE830E94480D6B017C018885998504
:10121000AA85BB8588539F4FAF4FBF4FC816D906CD
:10122000EA06FB06A0F00FEF0BC00E81188ABFEF95
:10123000BE8306C0188A0FEF03C00FEFEFEFEE83F7
:101240000E94AD07C886D986EA86FB8602C00FEFEA
:1012500080E2133051F0043441F09E819F7D9C3434
:1012600021F08C3431F401C0188A80E00E94C60558
:1012700043C0123039F0013429F0FE81F03211F010
:10128000813419F40E945F0637C01130A9F102348D
:1012900099F1112331F0033421F0923511F08235A8
:1012A00021F481E00E94C60527C0903529F565E04C
:1012B00070E085E090E00E94100D8BE791E09F9335
:1012C0008F930E94760F0F900F90EFE5F3E08081EF
:1012D00091810E94380F8F7D8035B9F765E070E00D
:1012E00085E090E00E94100D82E891E09F938F933B
:1012F0000E94760F0F900F9089819A81AB81BC81FB
:10130000EF814E2F50E060E070E084179507A6074C
:10131000B70768F0F5E64F1651046104710438F020
:10132000EB5FEF8324E6421A510861087108D3018C
:10133000C201880D991DAA1DBB1DC816D906EA0653
:10134000FB0620F00E944D07460157010E94E4056C
:10135000811113C08C859D85AE85BF858C509E4FB5
:10136000AF4FBF4FC816D906EA06FB0630F00E9401
:10137000B506CC86DD86EE86FF860E94BA0A098114
:101380001A812B813C816017710782079307F1F066
:101390000E94BA0A69837A838B839C8368E070E039
:1013A00084E190E00E94100D89819A81AB81BC811B
:1013B000BF93AF939F938F933F922F920E94760F8C
:1013C0000F900F900F900F900F900F900E94AA0710
:1013D0009D819817C1F00E94AA078D836AE070E092
:1013E00084E190E00E94100D0E94AA071F928F9343
:1013F000A5E9B1E0BF93AF930E94760F0F900F90D5
:101400000F900F9001C08D830E94E405882309F49A
:10141000D0CE4BC00E94480D6B017C018885998518
:10142000AA85BB8588539F4FAF4FBF4FC816D906BB
:10143000EA06FB0608F0F9CE0E8180E2188AFFEF7B
:10144000FE8309CF0E94480D6B017C018885998538
:10145000AA85BB8588539F4FAF4FBF4FC816D9068B
:10146000EA06FB06C8F0E6CE21E0288B02C082E047
:10147000888B0E94480D6B017C0188859985AA851F
:10148000BB8588539F4FAF4FBF4FC816D906EA069A
:10149000FB0608F0D2CE30CF9E819F7D9C3409F4AC
:1014A000E3CE80E2188A0FEFE8CE60960FB6F8948C
:1014B000DEBF0FBECDBFDF91CF911F910F91FF9087
:1014C000EF90DF90CF90BF90AF909F908F907F90E4
:1014D0006F905F904F903F902F9008950E949D03D2
:1014E0006EE070E08AE090E00E94100D8AE990E0E2
:1014F0009F938F930E948C0F6FE070E08AE090E0E2
:101500000E94100D8CE790E09F938F930E948C0FA8
:101510000F900F900F900F900E9412018F3FE1F3F8
:1015200008950E943C080E944B080E9484080E9473
:1015300093080E946E0AF9CF109247021092480257
:101540001092490210924A02089540914702509128
:1015500048026091490270914A02480F591F611D6B
:10156000711D409347025093480260934902709363
:101570004A020895609147027091480280914902A1
:1015800090914A020895609307019093AB01809374
:10159000AA011092AD011092AC011092A901109213
:1015A000A80108950F931F93CF93DF93CDB7DEB7B4
:1015B00028970FB6F894DEBF0FBECDBFE091AC0107
:1015C000F091AD01309781F0149110FF06C0109298
:1015D000AD011092AC0100E06BC03196F093AD010B
:1015E000E093AC0100E064C0E091A801F091A90192
:1015F000309709F449C0CF0101969093A9018093D7
:10160000A801E081E1110AC01092A9011092A8017D
:1016100080E18093A70100E010E04AC08FE98E0FBF
:101620008A3170F4F0E0EE0FFF1FE15DFF4F85910E
:1016300094919093AD018093AC0100E010E038C02C
:101640008FEB8E0F8A3170F4F0E0EE0FFF1FE1593F
:10165000FF4F859194919093AD018093AC0100E090
:1016600010E026C080ED8E0F8A3000F5F0E0EE0F1E
:10167000FF1FE358FF4F859194919093AD018093A4
:10168000AC0100E010E014C08091AA019091AB0180
:1016900001E0009709F000E09093A9018093A80170
:1016A0001092AB011092AA0110E002C000E010E01D
:1016B0000E94310820910701FE013896CE01019663
:1016C000112314F4208301C01082110F3197E81701
:1016D000F907B1F71982BE016F5F7F4F8FE00E945B
:1016E00014088091A701882389F081508093A70175
:1016F000002311F0882311F090E003C091E001C0B5
:1017000091E081E0992329F080E003C00023A1F358
:10171000F7CF28960FB6F894DEBF0FBECDBFDF918E
:10172000CF911F910F910895CF93C82F8A3019F44C
:101730008DE00E94940B9FB7907802C0992329F105
:1017400080914C028F3FD1F3F894E0914B0281E0FD
:101750008E0F80934B02F0E0E35BFD4FC0838091DE
:101760004C028F5F80934C0280914B028F3F11F4AB
:1017700010924B02E1ECF0E080818062808399233B
:1017800039F0789480E090E005C081E090E002C0FC
:1017900080E090E0CF91089580915E038823E1F38B
:1017A0002FB72078F89480914C0330915E0390E03D
:1017B000831B91095AF4E0914C0380915E03F0E0A1
:1017C000E81BF109E35AFC4F80810AC0E0914C0309
:1017D00080915E03F0E0E81BF109E35BFC4F808140
:1017E00090915E03915090935E03222309F07894C8
:1017F00090E0089510924B0210924C0210924C030C
:1018000010925E0310925D034093AE01DC01CB01A8
:10181000880F991FAA1FBB1F880F991FAA1FBB1FE4
:101820009C01AD01220F331F441F551F60E072E180
:101830008AE790E00E946C0EBA01A9014F5F5F4FEA
:101840006F4F7F4FDB01CA011AF40196A11DB11D34
:10185000B595A7959795879501979093C500809327
:10186000C400E1ECF0E088E18083808180688083BF
:10187000EFE5F3E088E091E09383828391838083B6
:10188000089590915E0381E0911101C080E0089578
:1018900010924C0310925E0308951F920F920FB6A0
:1018A0000F9211242F938F939F93EF93FF93809127
:1018B0004C02882329F180914B0220914C0290E048
:1018C000821B91095AF4E0914B0280914C02F0E0A6
:1018D000E81BF109E45BFC4F90810AC0E0914B02E8
:1018E00080914C02F0E0E81BF109E35BFD4F908131
:1018F00080914C02815080934C029093C60005C0A9
:10190000E1ECF0E080818F7D8083FF91EF919F91EA
:101910008F912F910F900FBE0F901F9018951F92CF
:101920000F920FB60F9211242F933F934F935F9313
:101930006F937F938F939F93AF93BF93CF93EF93C7
:10194000FF93C091C6008091AE01882349F0809139
:101950004C028F3F29F060E070E08C2F0E94940BC6
:1019600080915E03803120F081E080935D0318C098
:10197000CD3009F4CAE0E0914C0381E08E0F8093F2
:101980004C03F0E0E35BFC4FC08380915E038F5F0C
:1019900080935E0380914C03803111F410924C03CC
:1019A000FF91EF91CF91BF91AF919F918F917F91D7
:1019B0006F915F914F913F912F910F900FBE0F90BC
:1019C0001F90189594B1906B94B92C9A90E59CBD9A
:1019D000883021F0803211F0823019F491E09DBD01
:1019E00001C01DBC803269F028F4883071F080316C
:1019F00061F00EC0803429F0803851F48CB58160DC
:101A00008CBD8CB582608CBD03C08CB581608CBDF3
:101A10002C9808958EBD0DB407FEFDCF8EB50895A8
:101A20009F938F937F936F9380EC91E09F938F931D
:101A30000E948C0F0F900F900F900F900F900F90AF
:101A400008958BEB91E09F938F930E948C0F0F90E2
:101A50000F9008951092B1011092B2011092B3014B
:101A60001092B40116BC8CE787BD82E084BD83E090
:101A700085BDEEE6F0E080818260808385B3827070
:101A800085BB8FEF87B984E08AB98FE081B908956B
:101A90002FB7F8946091B1017091B2018091B301B8
:101AA0009091B401222324F4789421E02093AF0193
:101AB00008951F920F920FB60F921124CF92DF92CA
:101AC000EF92FF922F933F934F935F936F937F9388
:101AD0008F939F93AF93BF93EF93FF93CF93DF9336
:101AE000CDB7DEB72597DEBFCDBF8091B101909114
:101AF000B201A091B301B091B4010196A11DB11D35
:101B00008093B1019093B201A093B301B093B4015B
:101B10000E94AA0789838981843019F48FE082B9F1
:101B200016C08981833019F487E082B910C0898199
:101B3000823019F486E082B90AC08981813019F4B3
:101B400082E082B904C08981811101C012B80E946B
:101B5000BA0A6A837B838C839D839091B00181E074
:101B600089278093B0018091AF01882309F475C063
:101B70008A819B81AC81BD8184369105A105B10527
:101B8000C0F18091B00181111BC06A817B818C8181
:101B90009D810F2EFAE0CF2ED12CE12CF12CF02DCF
:101BA000A70196010E944A0ECA01B901A701960138
:101BB0000E944A0EFB01EA5EFE4F808188B947C051
:101BC0006A817B818C819D8124E630E040E050E099
:101BD0000E944A0ECA01B9012AE030E040E050E01C
:101BE0000E944A0EFB01E05EFE4F8081806888B94A
:101BF0002EC08091B001811110C06A817B818C81DF
:101C00009D812AE030E040E050E00E944A0EFB0156
:101C1000EA5EFE4F808188B91AC06A817B818C811F
:101C20009D810F2EFAE0CF2ED12CE12CF12CF02D3E
:101C3000A70196010E944A0ECA01B901A7019601A7
:101C40000E944A0EFB01E05EFE4F808188B98091C0
:101C5000B001880F880F8BB901C018B80F900F9092
:101C60000F900F900F90DF91CF91FF91EF91BF9167
:101C7000AF919F918F917F916F915F914F913F9124
:101C80002F91FF90EF90DF90CF900F900FBE0F90AD
:101C90001F901895A1E21A2EAA1BBB1BFD010DC0B7
:101CA000AA1FBB1FEE1FFF1FA217B307E407F5070C
:101CB00020F0A21BB30BE40BF50B661F771F881FE8
:101CC000991F1A9469F760957095809590959B017E
:101CD000AC01BD01CF010895052E97FB1EF40094C1
:101CE0000E94830E57FD07D00E944A0E07FC03D0C6
:101CF0004EF40C94830E50954095309521953F4FAE
:101D00004F4F5F4F089590958095709561957F4FE7
:101D10008F4F9F4F08958F929F92AF92BF92CF9215
:101D2000DF92EF92FF92CF93DF93EC01688179818C
:101D30008A819B81611571058105910521F464E219
:101D400079ED8BE597E02DE133EF41E050E00E9423
:101D50006C0E49015A019B01AC01A7EAB1E40E9453
:101D60005C126B017C01ACEEB4EFA50194010E9402
:101D70006A12DC01CB018C0D9D1DAE1DBF1DB7FF8E
:101D800003C00197A109B04888839983AA83BB83C4
:101D9000BC01CD019F77DF91CF91FF90EF90DF9055
:101DA000CF90BF90AF909F908F9008958F929F9209
:101DB000AF92BF92CF92DF92EF92FF9260910001BB
:101DC00070910101809102019091030161157105EB
:101DD0008105910521F464E279ED8BE597E02DE131
:101DE00033EF41E050E00E946C0E49015A019B0123
:101DF000AC01A7EAB1E40E945C126B017C01ACEE7D
:101E0000B4EFA50194010E946A12DC01CB018C0D94
:101E10009D1DAE1DBF1DB7FF03C00197A109B048AE
:101E20008093000190930101A0930201B0930301FC
:101E3000BC01CD019F77FF90EF90DF90CF90BF90D6
:101E4000AF909F908F90089560930001709301016F
:101E50008093020190930301089585FD0C949311E2
:101E6000806291110C94931181568A51D8F708958C
:101E7000CF93DF93EC012B8120FF33C026FF0AC0F4
:101E80002F7B2B838E819F8101969F838E838A81F6
:101E900090E029C022FF0FC0E881F9818081082EDF
:101EA000000C990B009719F420622B831AC031960D
:101EB000F983E8830EC0EA85FB85099597FF09C081
:101EC0002B81019611F080E201C080E1822B8B838F
:101ED00008C02E813F812F5F3F4F3F832E8399277C
:101EE00002C08FEF9FEFDF91CF910895A0E0B0E0A7
:101EF000ECE7FFE00C947F12AE014B5F5F4FFA01FD
:101F000061917191AF0180916103909162030E9490
:101F1000B20FE2E00C949B12A0E0B0E0E2E9FFE037
:101F20000C947D12AE01495F5F4FDA016D917D9196
:101F3000AD010FE513E0F80182819381DC01139676
:101F40002C911397286013962C930E94B20FD801FE
:101F50001296ED91FC9113972381277F2383E4E070
:101F60000C949912ABE0B0E0E8EBFFE00C946F1238
:101F70006C017B018A01FC0117821682838181FF3B
:101F8000CCC1CE0101963C01F6019381F70193FD8E
:101F9000859193FF81917F01882309F4BAC185322D
:101FA00039F493FD859193FF81917F01853229F466
:101FB000B60190E00E94AC11E7CF912C212C312C7E
:101FC000FFE1F315D8F08B3279F038F4803279F0F4
:101FD0008332A1F4232D20611DC08D3261F0803346
:101FE00069F4232D216016C0832D8260382EE32DE5
:101FF000E4603E2E2AC0F32DF8601DC037FC2DC0D2
:1020000020ED280F2A3040F08E32B9F436FC81C121
:10201000232D2064322E19C036FE06C08AE0989E19
:10202000200D1124922E11C0EAE02E9E200D1124C5
:10203000222EF32DF0623F2E08C08C3621F4832D22
:102040008068382E02C0883641F4F70193FD8591EF
:1020500093FF81917F018111B3CF982F9F7D95547C
:10206000933028F40C5F1F4F9FE399830DC0833694
:1020700031F0833771F0833509F059C021C0F80180
:10208000808189830E5F1F4F88248394912C530194
:1020900013C02801F2E04F0E511CF801A080B1805E
:1020A00036FE03C0692D70E002C06FEF7FEFC501FF
:1020B0000E94A1114C018201F32DFF773F2E16C023
:1020C000280122E0420E511CF801A080B18036FEAA
:1020D00003C0692D70E002C06FEF7FEFC5010E9461
:1020E00096114C01F32DF0683F2E820133FC1BC08A
:1020F000822D90E088169906B0F4B60180E290E057
:102100000E94AC112A94F4CFF50137FC859137FE7B
:1021100081915F01B60190E00E94AC1121102A94D8
:1021200021E0821A91088114910471F7E8C0843685
:1021300011F0893641F5F80137FE07C060817181E1
:10214000828193810C5F1F4F08C060817181072ECF
:10215000000C880B990B0E5F1F4FF32DFF763F2E5F
:1021600097FF09C090958095709561957F4F8F4F2F
:102170009F4FF0683F2E2AE030E0A3010E94E81153
:10218000882E861845C0853731F4232D2F7EB22E38
:102190002AE030E025C0932D997FB92E8F36C1F00B
:1021A00018F4883579F0B5C0803719F0883721F0F8
:1021B000B0C0E92FE061BE2EB4FE0DC0FB2DF4606F
:1021C000BF2E09C034FE0AC0292F2660B22E06C0D9
:1021D00028E030E005C020E130E002C020E132E03C
:1021E000F801B7FE07C060817181828193810C5F25
:1021F0001F4F06C06081718180E090E00E5F1F4F2D
:10220000A3010E94E811882E8618FB2DFF773F2E30
:1022100036FE0DC0232D2E7FA22E891458F434FED5
:102220000BC032FC09C0832D8E7EA82E05C0B82CB1
:10223000A32C03C0B82C01C0B92CA4FE0FC0FE0112
:10224000E80DF11D8081803321F49A2D997EA92E0D
:1022500009C0A2FE06C0B394B39404C08A2D867848
:1022600009F0B394A3FC11C0A0FE06C0B21488F418
:10227000280C922C9B180EC0B21460F4B60180E2B8
:1022800090E00E94AC11B394F7CFB21418F42B185D
:1022900002C0982C212CA4FE10C0B60180E390E06F
:1022A0000E94AC11A2FE17C0A1FC03C088E790E019
:1022B00002C088E590E0B6010CC08A2D867859F0FE
:1022C000A1FE02C08BE201C080E2A7FC8DE2B60154
:1022D00090E00E94AC11891438F4B60180E390E0DC
:1022E0000E94AC119A94F7CF8A94F301E80DF11D86
:1022F0008081B60190E00E94AC118110F5CF2220C0
:1023000009F442CEB60180E290E00E94AC112A941A
:10231000F6CFF6018681978102C08FEF9FEF2B9653
:10232000E2E10C948B12992788270895FC0105900F
:10233000615070400110D8F7809590958E0F9F1FC7
:102340000895FC016150704001900110D8F780950C
:1023500090958E0F9F1F08950F931F93CF93DF9338
:10236000FB01238121FD03C08FEF9FEF2CC022FFD3
:1023700016C046815781248135814217530744F4A2
:10238000A081B1819D012F5F3F4F318320838C93CA
:10239000268137812F5F3F4F3783268314C08B01FF
:1023A000EC01FB010084F185E02D0995892BE1F614
:1023B000D80116968D919C911797019617969C932C
:1023C0008E931697CE01DF91CF911F910F910895B3
:1023D000FA01AA27283051F1203181F1E8946F9356
:1023E0006E7F6E5F7F4F8F4F9F4FAF4FB1E03ED0FC
:1023F000B4E03CD0670F781F891F9A1FA11D680F9A
:10240000791F8A1F911DA11D6A0F711D811D911DCC
:10241000A11D20D009F468943F912AE0269F112441
:102420003019305D3193DEF6CF010895462F4770A5
:10243000405D4193B3E00FD0C9F7F6CF462F4F7000
:10244000405D4A3318F0495D31FD4052419302D05E
:10245000A9F7EACFB4E0A695979587957795679504
:10246000BA95C9F700976105710508959B01AC0104
:102470000A2E06945795479537952795BA95C9F72B
:10248000620F731F841F951FA01D0895F999FECF39
:1024900092BD81BDF89A992780B50895262FF999A4
:1024A000FECF1FBA92BD81BD20BD0FB6F894FA9A37
:1024B000F99A0FBE019608950E94A612A59F900D4D
:1024C000B49F900DA49F800D911D11240895B7FF16
:1024D0000C945C120E945C12821B930B08952F9245
:1024E0003F924F925F926F927F928F929F92AF92A4
:1024F000BF92CF92DF92EF92FF920F931F93CF93F1
:10250000DF93CDB7DEB7CA1BDB0B0FB6F894DEBF87
:102510000FBECDBF09942A88398848885F846E84AD
:102520007D848C849B84AA84B984C884DF80EE80F7
:10253000FD800C811B81AA81B981CE0FD11D0FB600
:10254000F894DEBF0FBECDBFED010895A29FB0018C
:10255000B39FC001A39F700D811D1124911DB29FD7
:0E256000700D811D1124911D0895F894FFCF78
:10256E00010000000800090F000000030000000039
:10257E00940BCC0B00003F065B4F666D7D077F6FA3
:10258E0000065B4F666D7D077F6F52616E6B3A2062
:10259E002564202C2053636F72653A20256C7520BC
:1025AE002C204E616D653A202573004E65772048CC
:1025BE006967682053636F726500596F7572206E7C
:1025CE00616D65206973200041535445524F494453
:1025DE0053203435303431383939005061757365D4
:1025EE0064004669726521210053636F72653A205B
:1025FE0025356C75004C6966653A202536640000F9
:04000005008001AFC7
:00000001FF
